:020000040800F2
:10000000005000203D3E00089D3E00089D3E000837
:100010009D3E00089D3E00089D3E00080000000037
:100020000000000000000000000000009D3E0008ED
:100030009D3E0008000000009D3E00085B2F000868
:100040009D3E00089D3E00089D3E00089D3E000824
:100050009D3E00089D3E00084D31000853310008C8
:10006000593100085F310008653100089D3E0008E5
:100070009D3E00089D3E00089D3E00089D3E0008F4
:100080009D3E00089D3E00089D3E00089D3E0008E4
:100090009D3E00089D3E00089D3E00086B31000813
:1000A0009D3E0008BD2C00089D3E0008D12C000894
:1000B000D52C0008E92C0008FD2C00089D3E000806
:1000C0009D3E00089D3E00089D3E00089D3E0008A4
:1000D0009D3E00089D3E00089D3E00089D3E000894
:1000E000933100089D3E00089D3E0008000000007E
:1000F0000000000000000000000000000000000000
:0C01000000000000000000005FF808F1A3
:10010C00034613F8012B002AFBD1181A013870474B
:10011C0081F0004102E000BF83F0004330B54FEAAC
:10012C0041044FEA430594EA050F08BF90EA020F19
:10013C001FBF54EA000C55EA020C7FEA645C7FEAAC
:10014C00655C00F0E2804FEA5454D4EB5555B8BFCF
:10015C006D420CDD2C4480EA020281EA030382EA40
:10016C00000083EA010180EA020281EA0303362DD2
:10017C0088BF30BD11F0004F4FEA01314FF4801CA5
:10018C004CEA113102D0404261EB410113F0004FB7
:10019C004FEA03334CEA133302D0524263EB43036E
:1001AC0094EA050F00F0A780A4F10104D5F1200E0C
:1001BC000DDB02FA0EFC22FA05F2801841F1000167
:1001CC0003FA0EF2801843FA05F359410EE0A5F13B
:1001DC0020050EF1200E012A03FA0EFC28BF4CF06C
:1001EC00020C43FA05F3C01851EBE37101F0004522
:1001FC0007D54FF0000EDCF1000C7EEB00006EEB2F
:10020C000101B1F5801F1BD3B1F5001F0CD34908B8
:10021C005FEA30004FEA3C0C04F101044FEA44520F
:10022C0012F5800F80F09A80BCF1004F08BF5FEA96
:10023C00500C50F1000041EB045141EA050130BD76
:10024C005FEA4C0C404141EB0101013C28BFB1F588
:10025C00801FE9D291F0000F04BF01460020B1FAD3
:10026C0081F308BF2033A3F10B03B3F120020CDAA6
:10027C000C3208DD02F1140CC2F10C0201FA0CF084
:10028C0021FA02F10CE002F11402D8BFC2F1200CE9
:10029C0001FA02F120FA0CFCDCBF41EA0C0190409F
:1002AC00E41AA2BF01EB0451294330BD6FEA0404E8
:1002BC001F3C1CDA0C340EDC04F11404C4F12002D3
:1002CC0020FA04F001FA02F340EA030021FA04F3E5
:1002DC0045EA030130BDC4F10C04C4F1200220FA3C
:1002EC0002F001FA04F340EA0300294630BD21FA7A
:1002FC0004F0294630BD94F0000F83F4801306BF40
:10030C0081F480110134013D4EE77FEA645C18BF33
:10031C007FEA655C29D094EA050F08BF90EA020FCA
:10032C0005D054EA000C04BF1946104630BD91EAC2
:10033C00030F1EBF0021002030BD5FEA545C05D1C5
:10034C004000494128BF41F0004130BD14F5800404
:10035C003CBF01F5801130BD01F0004545F0FE4178
:10036C0041F470014FF0000030BD7FEA645C1ABFAD
:10037C00194610467FEA655C1CBF0B46024650EAE4
:10038C00013406BF52EA033591EA030F41F4002110
:10039C0030BD00BF90F0000F04BF0021704730B596
:1003AC004FF4806404F132044FF000054FF000016B
:1003BC0050E700BF90F0000F04BF0021704730B52C
:1003CC004FF4806404F1320410F0004548BF404201
:1003DC004FF000013EE700BF42004FEAE2014FEA56
:1003EC0031014FEA02701FBF12F07F4393F07F4F31
:1003FC0081F06051704732F07F4208BF704793F034
:10040C007F4F04BF41F40021704730B54FF4607446
:10041C0001F0004521F000411CE700BF50EA010249
:10042C0008BF704730B54FF000050AE050EA0102F2
:10043C0008BF704730B511F0004502D5404261EB62
:10044C0041014FF4806404F132045FEA915C3FF4A3
:10045C00D8AE4FF003025FEADC0C18BF03325FEA40
:10046C00DC0C18BF033202EBDC02C2F1200300FAF1
:10047C0003FC20FA02F001FA03FE40EA0E0021FA16
:10048C0002F11444BDE600BF10B5054C237833B916
:10049C00044B13B10448AFF300800123237010BD4B
:1004AC0088000020000000003C46000808B5034B03
:1004BC001BB103490348AFF3008008BD00000000E6
:1004CC008C0000203C46000838B5074B586A074B97
:1004DC00D3E90045FFF75EFF2B462246FFF71EFED1
:1004EC00034BC3E9040138BD00080040D0010020D3
:1004FC00E0010020094B10B51B68094C13F0100FDC
:10050C004FF00002D4E90001064B04D0FFF704FEC3
:10051C00C4E9000110BDFFF701FEF9E70008004037
:10052C00D00100200000F040012A02D1016000201F
:10053C007047022A05D0032AF9D0002AF7D10260AD
:10054C00F5E70B680360F2E703681847836810B59A
:10055C00044613B1032201469847204610BD000003
:10056C002DE9FF4700244FF6FF78914D0221AB692E
:10057C00012043F00403AB61AB69DFF838A243F40C
:10058C000063AB618C4BDFF834925A688C4E22F0CE
:10059C000F025A605A6842F008025A605A6842F0D8
:1005AC0002025A6003F510535A6C42F400425A642A
:1005BC001A6822F001021A609C62C3F82C809A69B6
:1005CC0022F003029A619A6942F060029A611A6AF7
:1005DC0022F002021A625C631A6A42F001021A6289
:1005EC001A6842F001021A6003F0E2FD754B032217
:1005FC0058686946431C744B18BF01200093019442
:10060C00CDF80CA0CDF8089003F034FD6846FFF748
:10061C009DFF0221032003F0CBFD0221084603F0CD
:10062C00C7FDB02002F00CFC0746314602F070FB0F
:10063C00664B694638460093CDE9029A019402F064
:10064C00AEFB6846FFF782FFEB69112743F004030A
:10065C00EB6103233460B3604FF2F1130125B361F6
:10066C00F4613762B462C6F82C807462F368294670
:10067C0043F00103F3603846356003F099FD2146E1
:10068C00384603F0F3FD2946122003F091FD214674
:10069C00122003F0EBFD2946132003F089FD2146BF
:1006AC00132003F0E3FD2946C02003F081FD214611
:1006BC00C02003F0DBFD2946C12003F079FD214663
:1006CC00C12003F0D3FD2946C22003F071FD214661
:1006DC00C22003F0CBFD2946C32003F069FD21465F
:1006EC00C32003F0C3FD2946C82003F061FD214659
:1006FC00C82003F0BBFD2946C92003F059FD214653
:10070C00C92003F0B3FD29461E2003F051FD2146FC
:10071C001E2003F0ABFD29461F2003F049FD2146A6
:10072C001F2003F0A3FD0221102003F041FD022144
:10073C000F2003F03DFD02210E2003F039FD0221B4
:10074C000D2003F035FD02210B2003F031FD0221B9
:10075C000A2003F02DFD0221092003F029FD0221BE
:10076C00082003F025FD0221072003F021FD0221C2
:10077C00062003F01DFD0221052003F019FD0221C6
:10078C00042003F015FD2046022103F011FD104B4F
:10079C00694600930F4B10485B68019300F030FCE6
:1007AC000E4B0F48198804B0BDE8F04700F099BC17
:1007BC0000100240550500080008014035050008EE
:1007CC0000080040084A0008D5040008010500088C
:1007DC009C4A0008C80100200400002000000020F2
:1007EC00A4000020F7B5A94800F044FDA74D00284F
:1007FC0000F074810722A649284600F0F8FCA448B2
:10080C0000214722034610F8014B0131062982EAE8
:10081C000402F8D19979914240F060819D4A19689F
:10082C009B8811609380002311889B4C11F002016E
:10083C0023603DD103F1804303F58833D868918060
:10084C0020F40050D860D868A3F5006320F48040F1
:10085C00C3F80C08D3F80C0820F40040C3F80C08BB
:10086C00D86820F00100D860D86820F00200D86069
:10087C00D86820F00400D860D86820F00800D86050
:10088C00D3F80C0420F00100C3F80C04D3F80C04CA
:10089C0020F00200C3F80C04D3F80C0420F48060A0
:1008AC00C3F80C04D3F80C0420F40060C3F80C0457
:1008BC007A48938806889E421EBF794E73630380E4
:1008CC00002900F0D08001232380764B5288D96810
:1008DC0012F0010F14BF41F4005121F40051D96002
:1008EC00D96896074CBF41F4804121F48041D9600E
:1008FC00D96850074CBF41F4004121F40041D96044
:10090C00694B12F0080FD96814BF41F0010121F0B6
:10091C000101D960D968D7064CBF41F0020121F022
:10092C000201D960D96896064CBF41F0040121F050
:10093C000401D960D96850064CBF41F0080121F080
:10094C000801D960594912F0800FC86814BF40F0F3
:10095C00010020F00100C860544912F4807FC8687F
:10096C0014BF40F0020020F00200C8604F4912F49E
:10097C00007FC86814BF40F4806020F48060C860B9
:10098C004A4912F4806FCA6814BF42F4006222F420
:10099C000062CA608A68C2F30030024660808968CF
:1009AC008904424944BF40F0020262808A685204C2
:1009BC0042BF628842F0040262808A68170442BF18
:1009CC00628842F0080262809A68960542BF62888B
:1009DC0042F0100262809A68500542BF628842F071
:1009EC00200262809A68110542BF628842F0400280
:1009FC0062809A689B68D20442BF628842F080028F
:100A0C0062801F0448BF6388284A44BF43F4807344
:100A1C00638093681E0742BF638843F4007363804E
:100A2C009368224AD80642BF638843F4806363808C
:100A3C009368990642BF638843F4006363809368AC
:100A4C009B0542BF638843F480536380184B586AFC
:100A5C00184BD3E90067FFF79DFC32463B46FFF786
:100A6C005DFBC4E902010C4C094A04F1180623464B
:100A7C0003CBB342106051601C4602F10802F6D160
:100A8C000D4B69460093AB6918E000BFA400002031
:100A9C00C8000020F8010020E0010020D80100204F
:100AAC00002C01400010014000080140000C0140E6
:100ABC0000080040D00100209C4A0008AA8B08487E
:100ACC00019300F061FB18220649054800F06BFB0E
:100ADC00034803B0BDE8F04000F05FBB03B0F0BDCD
:100AEC00A4000020C800002037B500240F4823467E
:100AFC0022462146009403F033FA582300930A232C
:100B0C000B481A46194603F02BFA0A4D4FF47A7328
:100B1C002846AB60084B6C6040F8143B03F018FAA5
:100B2C00082385F8203003B030BD00BF0002002040
:100B3C00C8010020A40000205C460008002307B573
:100B4C001A4619460093034803F00AFA03B05DF8FD
:100B5C0004FB00BF080200204B68436000230381A4
:100B6C00704770B500240139002311F8010F20B92A
:100B7C00032C01D10120D37170BDA0F13005EEB270
:100B8C00092E08D803EB830305EB4305ABB2FF2B0F
:100B9C00EBD90020F0E72E28FBD1032CF9D0601CF8
:100BAC0014442371C4B2DFE7002307B51A46194673
:100BBC000093034803F0D4F903B05DF804FB00BFC5
:100BCC00100200202DE9F34106460D4603F088FB88
:100BDC0006F10C040222308106F10801204600F0D7
:100BEC00E2FA012302220DF106012046ADF806308F
:100BFC0000F0D9FA4FF4807302220DF10601204661
:100C0C00ADF8063000F0CFFA002302220DF10601F8
:100C1C002046ADF8063000F0C6FA02220DF10601AE
:100C2C00204600F0C0FA022220460DF1060100F029
:100C3C00BAFA2F462B78EBB94FF480750DF10501FC
:100C4C00012220468DF8053000F0ADFA0DF10601B9
:100C5C0002222046ADF8065000F0A5FA02222046EA
:100C6C000DF10601ADF8065000F09DFA012002B01E
:100C7C00BDE8F0813E463378354601360BB12E2B5C
:100C8C00F9D1A5EB0708B8F1000F0CDD01220DF12D
:100C9C00050120468DF8058000F085FA424639465C
:100CAC00204600F080FA3746C4E72DE9F04186B0C3
:100CBC0006468846174603F013FB054606F10C045E
:100CCC00204600F0D7FA002829DD7268736A9A4230
:100CDC0040F0C780338D352B40F0C380204600F0A8
:100CEC00E5F90B2840F3C0800C2220460DEB0201E5
:100CFC0000F07DFABDF80E303189BDF80C205BBADE
:100D0C0091429DB2ADF8063001D11B0411D420469E
:100D1C0000F0DAF94FF6FC7006B0BDE8F08103F094
:100D2C00DFFA401B404500F29980322003F0DAFADA
:100D3C00C6E740F20F231D4005D0204600F0C4F951
:100D4C004FF6FB70E8E7BDF812305EBAB6B2E3B905
:100D5C00204600F0B9F94FF6FA70DDE70021204685
:100D6C0000F045FA9DF80A304BB1012220460DF1F6
:100D7C000A0100F03CFA9DF80A20002AEED1042268
:100D8C000021204600F033FA0135BDF81030AAB22C
:100D9C005BBA9BB29A42E8DB0025A846ABB2B342E1
:100DAC0005D3204600F090F94FF6F670B4E7012217
:100DBC0020460DF1050100F01AFA9DF805203F2A96
:100DCC002DD83AB10021204600F011FA9DF80530DB
:100DDC00002BECD1022202A9204600F008FA0222D4
:100DEC000DF10A01204600F002FA042200212046EF
:100DFC0000F0FDF9022220460DF1060100F0F7F992
:100E0C00BDF80830B3F5807F11D0BDF80620002165
:100E1C0052BA204692B200F0EAF90135BEE701223F
:100E2C000021204600F0E3F98DF80580D2E7BDF8EB
:100E3C000A30B3F5807FE8D1BDF80630B3F5806F8A
:100E4C0005D0204600F040F94FF6F77064E7042215
:100E5C002046B91800F0CBF901205DE74FF6FF7082
:100E6C005AE74FF6FE7057E74FF6FD7054E7000057
:100E7C002DE9F74306460D469846FFF772FE91465C
:100E8C00044660BB194B72685B689A422BD003F026
:100E9C0027FA06F10C0700F00F0101F580613846C6
:100EAC0000F01FF901281AD1114B352200937368F9
:100EBC0069463846019300F067F968B12946304617
:100ECC00FFF780FE384600F068F928B14A464146E3
:100EDC003046FFF7EAFE0446384600F0F6F82046A6
:100EEC0003B0BDE8F0836FF00104F8E710020020B6
:100EFC009C4A0008014604220F2000F00FBE014658
:100F0C000622092000F00ABE01460422052000F04A
:100F1C0005BE01460422012000F000BEF7B50746CD
:100F2C000E4614461D4600F0C3FFE8B10F4B1048A7
:100F3C0000930123ADF8043002AB13E9060002F074
:100F4C0097FD3846FFF7DBFF301DFFF7D3FF281D59
:100F5C00FFF7DFFF08980430FFF7D6FF044802F0D4
:100F6C00A8FD6268034B5A6003B0F0BD80C3C90191
:100F7C00F8030020180200202DE9F0411E46002342
:100F8C008CB00093FF238846174605461A4619462F
:100F9C0002A802F0E5FF0C4CD8F804302846CDE945
:100FAC0005347B6806AACDE90734736804A9CDE93A
:100FBC000934039B04940B930AAB009308ABFFF723
:100FCC00ADFF0CB0BDE8F0819C4A000800B50B4B9E
:100FDC004968526889B0CDE90231CDE90523049303
:100FEC00012301918DF80730019B04AA079302A9F4
:100FFC0006ABFFF7C1FF09B05DF804FB9C4A000883
:10100C007FB5094B4A680493CDE902320123019262
:10101C008DF80730019B04AA02A90593FFF7D6FFB0
:10102C0007B05DF804FB00BF9C4A0008002307B51D
:10103C001A4619460093044802F092FF034803B085
:10104C005DF804EB02F084BF20020020180200209F
:10105C00002307B51A4619460093034802F080FF97
:10106C0003B05DF804FB00BF28020020002070478D
:10107C00002307B51A4619460093034802F070FF87
:10108C0003B05DF804FB00BF4002002003681B6C3A
:10109C0018470000024A02608A694260704700BF2C
:1010AC009C4A0008808B7047008A7047408C7047C0
:1010BC0007B503688DF8071001225B680DF1070175
:1010CC00984703B05DF804FB704710B5044690F8E0
:1010DC002000072804D800F055FB082384F82030A2
:1010EC0010BD38B5044690F820000D46072801D8ED
:1010FC0000F048FB2946022000F0F2F9072884F89A
:10110C0020004FF000009EBF25826084012038BD76
:10111C00F0B591B0044604A80E46154602F018FF2F
:10112C0000224FF47A73CDE90823144B0CA80793D3
:10113C0002F00EFF082368468DF83C3002F008FFE1
:10114C000F4B104F5B6802A904A803930297FFF79B
:10115C0003FD41F288336A46314604A8FFF788FE46
:10116C00012808D1019A236820461B6B02A903921F
:10117C0002972A46984711B0F0BD00BF5C460008A4
:10118C00180200209C4A000808B500230431C383D0
:10119C0090F8200000F02EFC08BD08B590F8200057
:1011AC0000F056FC08BD10B5044693B20A46C18B3C
:1011BC0090F8200000F0F6FBE38B0344E38310BDB2
:1011CC00438C13B504461BB94FF0FF3002B010BD71
:1011DC00012290F820000DF1070100F0EFFA002831
:1011EC00F2DD638C9DF80700013B6384EEE7438CD2
:1011FC0010B5044613B94FF0FF3010BD934294BFA5
:10120C001AB212B290F8200000F0D8FA0028F2DDE1
:10121C00638C1B1A6384F0E708B5034690F8200032
:10122C00072804D85B8C13B100F094FB08BD4FF079
:10123C00FF30FBE773B5044690F820000E460728F4
:10124C00154601D800F09EFA094B2A4600937368A4
:10125C0069468220019300F0D9F9072884F8200010
:10126C004FF000009EBF60840120258202B070BD4B
:10127C009C4A000813B50446628CE2B994F820002D
:10128C0000F03AFBA8B10822694694F8200000F05F
:10129C0095FA00280DDD694604F1140002F06CFE8D
:1012AC00BDF804305BBAA383BDF806305BBA638427
:1012BC0098B202B010BD2368002120461B6C9847E1
:1012CC00DAE70000002307B51A46194600930348D5
:1012DC0002F046FE03B05DF804FB00BF480200209C
:1012EC0030B41546054A127801EB022404EB0020B9
:1012FC00294630BC1A4680B200F010BC990200207E
:10130C0030B41546054A127801EB022404EB002098
:10131C00294630BC1A4680B200F0BABC99020020B3
:10132C0007B5084B8DF807201B78012201EB032130
:10133C0001EB002080B20DF1070100F0EFFB03B0D0
:10134C005DF804FB990200202DE9F3470C4690460A
:10135C001E462421022301AA0546FFF7D1FFBDF842
:10136C000430DFF888905BBA1C4499F80030A7B2BF
:10137C00332BC4F30A042FD105F1080004EBC02071
:10138C0080B2A319B3F5006F2DDDC4F5006A1FFA06
:10139C008AFA5246414600F0C1FB99F8003008EB3E
:1013AC000A01332B0CBF05F1080005F11000A6F55E
:1013BC000063C002E21880B292B2374400F0AEFB78
:1013CC007FBA02232421284601AAADF80470FFF746
:1013DC0087FF02B0BDE8F08705F1100004EBC020D8
:1013EC00372B80B2CDD132464146E6E79A02002037
:1013FC0007B5084B01221B7801EB032101EB002000
:10140C0080B20DF1070100F043FC9DF8070003B01A
:10141C005DF804FB9902002008B50321FFF7E8FFF3
:10142C0008BD07B549BAADF804100223042101AA7E
:10143C00FFF756FF03B05DF804FB07B549BAADF8EA
:10144C0004100223102101AAFFF74AFF03B05DF834
:10145C0004FB07B50223202101AAFFF751FFBDF8B9
:10146C00040040BA80B203B05DF804FB38B5044602
:10147C00FFF7EFFF034620461D46FFF7EAFF8542C4
:10148C000346F8D1024A02EBC402908038BD00BF7B
:10149C005002002007B50223262101AAFFF730FFD6
:1014AC00BDF8040040BA80B203B05DF804FB07B588
:1014BC000223282101AAFFF723FFBDF8040040BA3C
:1014CC0080B203B05DF804FB044B1B78332B0CBFCC
:1014DC000C301830C00280B2704700BF9A02002056
:1014EC002DE9F347404B07461B780E4683B3332B4D
:1014FC003E4B3F4800934FF00103ADF80430DDE95B
:10150C0000120CBF4FF004084FF00808E94602F037
:10151C00AFFAEA460024E5B22846FFF77DFF0AF849
:10152C00010BF8B10134E3B29845F4D800244FF024
:10153C00345219F8013B1D2B03D822FA03F3DB07B5
:10154C000BD40134E3B29845F3D8294802F0B1FA30
:10155C000825284602B0BDE8F087E5B210212846E0
:10156C0000F010FD0022234B234923F81420234BB9
:10157C00234A1B684868B3FBF2F3FA2253434A68C8
:10158C00121A9342FBDC3A4600212846FFF7C8FEAC
:10159C00FF2202212846FFF7C3FEBEB131460027C9
:1015AC002846FFF73EFF174E0121284600F0EAFCC3
:1015BC00284626F83470FFF77AFF06EBC4035880F0
:1015CC000B489F719F8002F074FAC2E70E4A118893
:1015DC00013189B2B1F5404F36BF4FF440430B4651
:1015EC0019461380DBE700BF9A02002080C3C901B3
:1015FC00F803002030020020001000E03000002032
:10160C0040420F00500200200A0000202DE9F04F4C
:10161C00524B81461B780F46904685B083B3332BD3
:10162C004F4B02AE02934FF00103ADF80C304D4816
:10163C0096E806000CBF4FF0040A4FF0080AB346B8
:10164C0002F016FA0024E5B22846FFF7E5FE0BF887
:10165C00010BF8B10134E3B29A45F4D800244FF0F1
:10166C00345216F8013B1D2B03D822FA03F3DB0787
:10167C000BD40134E3B29A45F3D83A4802F019FA84
:10168C000825284605B0BDE8F08FE5B210212846A4
:10169C0000F078FC0022344B344923F81420344BEE
:1016AC00344A1B684868B3FBF2F3FA2253434A6886
:1016BC00121A9342FBDC4A4600212846FFF730FE03
:1016CC00FF2202212846FFF72BFEB8F1000F37D07E
:1016DC0041462846FFF7A5FE274B284600937B7909
:1016EC000C2103F07F038DF80330BB794FF0000918
:1016FC008DF80430FB79214E8DF805300423FA184F
:10170C00FFF7EEFD41462846FFF797FE06236A4693
:10171C0019462846FFF7E4FD0121284600F032FC6B
:10172C00284626F83490FFF7C2FE06EBC403588017
:10173C000C4883F80690A3F8049002F0BAF9A0E7DD
:10174C000F4A1388013399B2B1F5404F36BF4FF4AD
:10175C0040430B4619461380BBE700BF9A0200209A
:10176C0080C3C901F803002030020020001000E003
:10177C003000002040420F0001005E0050020020AB
:10178C000A00002013B50B4B044600930123ADF85F
:10179C00043002AB13E90600074802F069F9204651
:1017AC00102100F0EFFB044802B0BDE8104002F03D
:1017BC0080B900BF80C3C901F80300202DE9F04FA8
:1017CC00484B85B0029301231446474FADF80C30BB
:1017DC0037F8306002AB0546884693E8060043486C
:1017EC0002F046F9B4420EDD2846FFF753FE0646DA
:1017FC002846FFF74FFEB042F9D107EBC5039B79A2
:10180C00C61A27F8356086B92846FFF705FE1C284E
:10181C0064D8374CC44004F00104013C334802F056
:10182C0048F9204605B0BDE8F08FB442A8BF344655
:10183C0007EBC503B3F802B04FEAC50AA6B2B8F17C
:10184C00000F22D02846FFF73FFE2A4ACBF30A09A5
:10185C0012784844372A80B23CD032464A44B2F51A
:10186C00006F37DDC9F50062414692B2019200F07B
:10187C000FFA019A28469044FFF726FEA9F500625C
:10188C00324492B2414600F003FA07EB0A0237F8F1
:10189C0035309179B3449B1B0E44B6B21FFA8BFBC7
:1018AC009BB2F92EA2F802B027F8353000D89BB9BC
:1018BC00002357442846BB71282102239BFA9BFB2B
:1018CC0002AAADF808B0FFF70BFD4021284600F046
:1018DC0059FBA3E73246D5E796719FE74FF0FF34EB
:1018EC009CE700BF80C3C90150020020F803002010
:1018FC00010010109A020020F7B5134E054636F879
:10190C003000F8B9114B124800930123ADF80430A4
:10191C0002AB13E9060002F0ABF82846FFF7BAFD5C
:10192C00044628462746FFF7B5FDB8420446F8D1D1
:10193C00074802F0BEF806EBC5039B79E41AA0B287
:10194C0026F8350003B0F0BD5002002080C3C90159
:10195C00F803002073B5012604460F4BADF8046064
:10196C000093DDE900120D4802F082F82046FFF7E3
:10197C00ABFD0B4B324603EBC4035B886946C3F3E8
:10198C000A03184480B200F083F9044802F091F87D
:10199C009DF8000002B070BD80C3C901F80300209F
:1019AC0050020020F7B51C46104B0546009301234E
:1019BC00ADF8043002AB0E46174613E906000C488E
:1019CC0002F056F82846FFF751FDA04228BF2046EA
:1019DC0084B223463A4631462846FFF7B5FC044804
:1019EC0002F067F8204603B0F0BD00BF80C3C90108
:1019FC00F8030020F7B50B7806460D4614462BB9B4
:101A0C004B781BB98B780BB9C878C8B1D4B1012706
:101A1C000D4BADF80470009302AB13E906000B48B4
:101A2C0002F026F804232A460C213046FFF758FC16
:101A3C0021463046FFF701FD044802F03AF83846DB
:101A4C0003B0F0BD2046FBE780C3C901F8030020BA
:101A5C002DE9F3414FF0010804461F4FADF8048007
:101A6C0000971E48DDE9001202F002F82021204602
:101A7C006E4600F087FA02212046FFF7B9FC10F001
:101A8C00100509D0102202212046FFF749FC13480B
:101A9C0002F00FF801200EE002212046FFF7A8FC0F
:101AAC0003070BD5182202212046FFF739FC0B48FF
:101ABC0001F0FFFF284602B0BDE8F081074801F0B5
:101ACC00F8FF02F061FB0097ADF80480034896E83C
:101ADC00060001F0CDFFCEE780C3C901F80300205A
:101AEC00002307B51A4619460093034802F038FA4A
:101AFC0003B05DF804FB00BF90020020024B0021F4
:101B0C00187802F0B3BB00BF0C000020024B01217F
:101B1C00187802F0ABBB00BF0C000020F7B54A4BA5
:101B2C0005461B780C46332B164623D187184C1EC2
:101B3C00BFB2BD4202D1304603B0F0BDFFF7DEFFAD
:101B4C000022F021414801F0B5FF290A00223F484C
:101B5C0001F0B0FFE9B200223C4801F0ABFF0135C7
:101B6C00002214F8011F3948ADB201F0A3FFFFF7B2
:101B7C00CDFFDEE7342BC7B21ED1FFF7BFFF330A10
:101B8C0063F07F036DBA8DF802300422002369469E
:101B9C002E48ADF800508DF8036001F09DFFA5199B
:101BAC00A54202D1FFF7B2FFC5E7002214F8011BD2
:101BBC00264801F07FFFF3E7FFF7A0FFFF2D2BD99D
:101BCC002B041CD40022EB0803F0E00343F00C03BD
:101BDC00052E8DF800208DF801708DF8023023D879
:101BEC00631E0DF10202C4F10104E1188E4216DCF1
:101BFC00002369461548F21C01F06EFFD2E7AB09D1
:101C0C0003F0E003B5F5404F4FEA152234BF43F023
:101C1C00140343F01C03DBE700220423D8E713F87A
:101C2C00011F02F8011FE0E7002303226946074861
:101C3C0001F052FFA51914F8011B0022034801F012
:101C4C0039FFAC42F7D1ADE79A020020F80300202F
:101C5C0007B5084B8DF807201B78012201EB0321F7
:101C6C0001EB002080B20DF10701FFF757FF03B025
:101C7C005DF804FB9902002007B501228DF80700DE
:101C8C000DF107010020FFF749FF03B05DF804FBDD
:101C9C00F7B53A4B04461B780E46332B154624D128
:101CAC0087184E1EBFB2BC4202D1284603B0F0BD0D
:101CBC00FFF724FF00220F21314801F0FBFE210A1F
:101CCC0000222F4801F0F6FEE1B200222C4801F070
:101CDC00F1FE00222A48114601F0ECFE013406F810
:101CEC00010FA4B2FFF712FFDDE7342BC7B21FD1EF
:101CFC00FFF704FFC5F3062304228DF806300023FA
:101D0C0064BAADF804408DF807500DEB02011C4885
:101D1C0001F0E2FE2A460021304602F0B3FB00231C
:101D2C002A463146164801F0D7FEFFF7EFFEBCE716
:101D3C00FFF7E4FEFF2C1ED923040FD40022E30886
:101D4C0003F0E00343F008038DF804208DF806300F
:101D5C00032200238DF8057001A9D8E7A30903F02D
:101D6C00E003B4F5404F4FEA142234BF43F01003A4
:101D7C0043F01803E8E700221346E5E79A02002037
:101D8C00F803002007B501220DF10701FFF780FFD2
:101D9C009DF8070003B05DF804FB08B50020FFF7C1
:101DAC00F1FF08BD10B58020FFF766FF1424FFF784
:101DBC00F4FF40B1013C0120A4B202F093FA002CD4
:101DCC00F5D1204610BD0120FCE70000332208B5F8
:101DDC000E4B1A70FFF7E6FF08B9002008BD102063
:101DEC00FFF74AFFFFF7D9FF1028F6D11220FFF7B3
:101DFC0043FFFFF7D2FF1228EFD10020FFF73CFF83
:101E0C00FFF7CBFFB0FA80F04009E7E79A02002019
:101E1C00342208B5114B1A70FFF7C4FF08B9002023
:101E2C0008BD0820FFF728FFFFF7B7FF0828F6D1F9
:101E3C001020FFF721FFFFF7B0FF1028EFD1002093
:101E4C00FFF71AFFFFF7A9FF0028E8D11F20FFF7C3
:101E5C0099FFC31E58425841E2E700BF9A02002086
:101E6C00372208B5114B1A70FFF79CFF08B90020F8
:101E7C0008BD0820FFF700FFFFF78FFF0828F6D1F9
:101E8C001020FFF7F9FEFFF788FF1028EFD1002094
:101E9C00FFF7F2FEFFF781FF0028E8D13920FFF7AA
:101EAC0071FF031F58425841E2E700BF9A0200201D
:101EBC00F7B52E4F3C7884BB01264FF40C7002F022
:101ECC0011FA2B4801F0C4FD2A4B0121187802F0BD
:101EDC006FF9FFF71BFE284BADF804600093244804
:101EEC00DDE9001201F0C4FDFFF792FFB8B140220A
:101EFC00224B1A70E5B202221E212846FFF7A8FEDB
:101F0C00013402221F212846FFF7A2FE082CF1D132
:101F1C00174801F0CEFD01233B70012422E0FFF7AE
:101F2C009FFF18B11022154B1A70F1E7FFF74EFF07
:101F3C00044690B104225524104B69461A701B209C
:101F4C0032468DF80040FFF7E9FD324669461A200B
:101F5C008DF80040FFF7E2FDDAE7094B18700448F2
:101F6C0001F0A7FD204603B0F0BD00BF9802002091
:101F7C00F80300200C00002080C3C9019902002046
:101F8C009A02002038B50A4604460121FFF760FE8C
:101F9C00054D2402287804EB0020013080B2FFF7B5
:101FAC00F1FE0028F6D138BD99020020002307B5B8
:101FBC001A4619460093034801F0D2FF03B05DF8AE
:101FCC0004FB00BF9C0200207047000038B50E4B8C
:101FDC0005461A784FF47A73B3FBF2F30B4A106888
:101FEC00B0FBF3F000F08AF8044658B90F2D09D86D
:101FFC00024629464FF0FF3000F042F82046044BD1
:10200C001D6038BD0120FCE70D00002030000020D1
:10201C0010000020074A08B51368032043F0100392
:10202C00136000F01BF80020FFF7D0FFFFF7CCFF88
:10203C00002008BD00200240034A044B11681B78A5
:10204C000B441360704700BFA40200200D00002059
:10205C00014B1868704700BFA40200200749030217
:10206C00CA6803F4E06322F4E0621204120C134316
:10207C0043F0BF6343F40033CB60704700ED00E0E6
:10208C00154B30B5DC68C4F30224C4F10703251DDD
:10209C00042B28BF0423062D4FF0FF3594BF0024DA
:1020AC00033C05FA03F321EA0303A54022EA0502E7
:1020BC00A340002843EA0203ACBF00F16040074A8A
:1020CC004FEA0313DBB2ABBF00F5614000F00F0029
:1020DC0080F80033135430BD00ED00E014ED00E047
:1020EC00002807DB01234109034A00F01F0083404D
:1020FC0042F82130704700BF00E100E00138B0F138
:10210C00807F0BD24FF0E023F021054A586182F812
:10211C0023100020072298611A6170470120704734
:10212C0000ED00E0704708B5FFF7FCFF08BD7047F5
:10213C0010B5044650B1437903F0FF0213B9027194
:10214C00FFF7F5FF01230020637110BD0120FCE7B0
:10215C002DE9F74F00244FF00F0E2646DFF884C10F
:10216C00614B00F104080A6832FA06F502D103B09B
:10217C00BDE8F08F012505FA06F702EA070537EAF4
:10218C00020276D14A68032A07D8013A022A00F2E1
:10219C008380DFE802F091969C00122A00F0948074
:1021AC0069D8112A00F08A80FF2D94BF8146C14660
:1021BC004FEA8602D9F8007088BF203A0EFA02FA6C
:1021CC0027EA0A0704FA02F21743C9F80070D1F89B
:1021DC00049019F0805F4CD0DCF8182026F003072F
:1021EC0042F00102CCF81820DCF8182007F18047E7
:1021FC0002F00102019207F5803706F0030A019AFA
:10220C004FEA8A0ABA680EFA0AFB22EA0B0B374A23
:10221C00904260D002F5806290425ED002F58062FE
:10222C0090425CD002F58062904214BF04220322DB
:10223C0002FA0AF242EA0B02BA609A6819F4801F99
:10224C0014BF2A43AA439A60DA6819F4001F14BF1A
:10225C002A43AA43DA605A6819F4003F14BF2A4390
:10226C00AA435A601A6819F4803F14BF2A43AA4340
:10227C001A60013677E7DFF878904A450CD014D80D
:10228C00A9F580194A4507D009F570294A4503D0AC
:10229C00A9F580194A4587D18A68D2B1012A4FF035
:1022AC0008040CBF076147617EE7DFF848904A4598
:1022BC00F2D009F58039EDE7CC6875E7CC680434C9
:1022CC0072E7CC6808346FE7CC680C346CE70024F8
:1022DC006AE7042468E70022AAE70122A8E70222A1
:1022EC00A6E700BF001002400004014000080140B6
:1022FC000000221000003110044A08B55169014257
:10230C0002D0506100F006FF08BD00BF0004014080
:10231C002DE9F341054638B30368DB0710D42B686D
:10232C009F075ED42B68190700F195802B685A071C
:10233C0000F1C180EB69002B40F02C81002029E0DA
:10234C00904C636803F00C03042B07D0636803F014
:10235C000C03082B0AD16368DE0307D523689C03A2
:10236C00DDD56B68002BDAD1012013E06B68B3F577
:10237C00803F12D1236843F480332360FFF768FE5B
:10238C00064623689803CAD4FFF762FE801B6428B4
:10239C00F7D9032002B0BDE8F0819BB9236823F480
:1023AC0080332360236823F480232360FFF750FEDF
:1023BC00064623689903B2D5FFF74AFE801B6428B2
:1023CC00F7D9E6E7B3F5A02F236803D143F48023B4
:1023DC002360CFE723F480332360236823F4802326
:1023EC00CBE7684C636813F00C0F07D0636803F0FD
:1023FC000C03082B10D16368DA030DD423689B07F8
:10240C0002D52B69012BAFD123686A6923F0F8033D
:10241C0043EAC203236085E72A695B4B6AB1012258
:10242C001A60FFF715FE064623689F07ECD4FFF7EA
:10243C000FFE801B0228F7D9ABE71A60FFF708FEE6
:10244C000646236898077FF56DAFFFF701FE801BEA
:10245C000228F6D99DE7AA694A4E4B4BE2B10122FC
:10246C00C3F88024FFF7F4FD0446736A9B070DD56F
:10247C004FF4FA52454B1B68B3FBF2F3019300BFC8
:10248C00019B5A1E0192002BF9D14FE7FFF7E0FD9B
:10249C00001B0228E9D97CE7C3F88024FFF7D8FD9C
:1024AC000446736A9F077FF541AFFFF7D1FD001B10
:1024BC000228F6D96DE7334CE369D80024D4012700
:1024CC00E36943F08053E361E36903F080530093C5
:1024DC00009B2F4E3368D90518D5EB68012B26D1FC
:1024EC00236A43F001032362FFF7B2FD41F28838FF
:1024FC000646236A9B073FD5002F3FF41BAFE369C9
:10250C0023F08053E36115E70027E2E7336843F4D7
:10251C0080733360FFF79CFD80463368DA05DCD4AA
:10252C00FFF796FDA0EB08006428F6D931E7ABB9AC
:10253C00236A41F2883823F001032362236A23F0D3
:10254C0004032362FFF784FD0646236A9807D3D55C
:10255C00FFF77EFD801B4045F7D91AE7052B236A50
:10256C0003D143F004032362BAE723F0010323628F
:10257C00236A23F00403B6E7FFF76AFD801B40458E
:10258C00B7D906E70010024000004242300000209C
:10259C00007000402A4C626802F00C02082A3ED0FF
:1025AC000022022B274B1A662CD1FFF751FD064651
:1025BC002368990120D42B6AB3F5803F05D162685A
:1025CC00A96822F400320A436260696A62680B43AC
:1025DC0022F474121343012263601A4B1A66FFF73C
:1025EC0037FD054623689A013FF5A8AEFFF730FD8D
:1025FC00401B0228F6D9CCE6FFF72AFD801B0228E7
:10260C00D6D9C6E6FFF724FD054623689B017FF566
:10261C0095AEFFF71DFD401B0228F6D9B9E6012B3C
:10262C003FF4A2AE60682B6A00F480329A427FF4C9
:10263C009BAE6B6A00F47010C01A18BF0120A9E69B
:10264C0000100240000042420D4A536803F00C0196
:10265C00082912D10B48C3F38341DB03405C09D535
:10266C005368094AC3F340435043084AD35CB0FB58
:10267C00F3F07047064B584370470348704700BF50
:10268C0000100240B246000800127A00B046000862
:10269C0000093D002DE9F0410D46044610B901201A
:1026AC00BDE8F081444A136803F007038B4228D33A
:1026BC0021688E0730D4CA0743D43F4A136803F00D
:1026CC000703AB4265D822683C4D12F0040F6CD165
:1026DC00130706D56B68226923F4605343EAC203DF
:1026EC006B60FFF7B1FF6B68354AC3F30313D35C20
:1026FC00D840344B1860344B1868FFF767FC002047
:10270C00CEE7136823F007030B431360136803F041
:10271C0007038B42C3D1CBE7284B11F0040F1EBF2C
:10272C005A6842F4E0625A60080742BF5A6842F4A1
:10273C0060525A605A68A06822F0F00202435A6054
:10274C00B9E762681D4E012A33681AD113F4003FB1
:10275C00A5D0736841F2883823F0030313437360E8
:10276C00FFF776FC07467368626803F00C03B3EB63
:10277C00820FA2D0FFF76CFCC01B4045F3D903209D
:10278C008EE7022A02D113F0007FE1E713F0020F6B
:10279C00DEE7136823F007032B431360136803F081
:1027AC000703AB427FF47BAF8DE76B68E16823F4E2
:1027BC00E0630B436B608BE700200240001002408B
:1027CC000C4700083000002010000020044B054A84
:1027DC005B68C3F30223D35C034A1068D84070478C
:1027EC00001002400447000830000020044B054A4A
:1027FC005B68C3F3C223D35C034A1068D8407047AC
:10280C0000100240044700083000002003682DE946
:10281C00F3410546D80720D5364CE369D9002AD4B4
:10282C000126E36943F08053E361E36903F08053CD
:10283C000193019B304F3B68DA051ED5236A13F4D4
:10284C0040732ED1236A6A6823F4407313432362C6
:10285C001EB1E36923F08053E3612A68910706D522
:10286C002449A8684B6823F4404303434B60D306C8
:10287C0037D4002012E00026DCE73B6843F4807379
:10288C003B60FFF7E5FB80463B68DB05D6D4FFF7E2
:10289C00DFFBA0EB08006428F6D9032002B0BDE8EA
:1028AC00F0816A6802F440729A42CBD00120134A3C
:1028BC00236AC2F84004002023F44071DF07C2F8F9
:1028CC0040042162BED5FFF7C3FB41F288380746AE
:1028DC00236A9807B6D4FFF7BBFBC01B4045F7D95A
:1028EC00DBE7044AE968536823F480030B43536025
:1028FC00BFE700BF001002400070004000004242E1
:10290C00704710B50446002851D0436A002B4AD1B9
:10291C004268B2F5827F00D0C3610023A36294F8B1
:10292C00513003F0FF0223B9204684F85020FFF702
:10293C00E7FF0223226884F851301368A06823F063
:10294C0040031360636800F4044003F48273034390
:10295C00E068A16900F400600343206900F0020004
:10296C000343606900F00100034301F4007003436A
:10297C00E069090C00F038000343206A01F00401FF
:10298C0000F080000343A06A00F40050034313607E
:10299C005160D369002023F40063D3610123606587
:1029AC0084F8513010BD0023C0E90433B5E7012091
:1029BC00F8E770477047036870B5DD681E69044618
:1029CC00B1070DD5AA070BD56FF002021A610122CF
:1029DC0002779B699B0769D000F030FA00232377BC
:1029EC00710710D56A070ED56FF0040223682046D4
:1029FC001A61022222779B6913F4407F5CD000F0AD
:102A0C001DFA0023237733070FD528070DD56FF058
:102A1C000802236820461A6104222277DB69990791
:102A2C0050D000F00BFA00232377F20610D5EB06FA
:102A3C000ED56FF01002236820461A610822227707
:102A4C00DB6913F4407F43D000F0F8F900232377BF
:102A5C00F00708D5E90706D56FF001022368204678
:102A6C001A6100F0C8F9320608D52B0606D56FF0AE
:102A7C008002236820461A6100F091F8700608D590
:102A8C00690606D56FF04002236820461A61FFF7ED
:102A9C0091FFB20622D5AB0620D56FF02002236839
:102AAC002046BDE870401A6100F078B800F0C4F917
:102ABC002046FFF77EFF91E700F0BEF92046FFF7B6
:102ACC0078FF9EE700F0B8F92046FFF772FFAAE7FF
:102ADC0000F0B2F92046FFF76CFFB7E770BD0000BD
:102AEC00174A036890420AD0B0F1804F07D0A2F584
:102AFC009432904203D002F58062904207D14A682A
:102B0C0023F070031343CA6823F4407313434A69D8
:102B1C0023F08003134303608B68C3620B688362EA
:102B2C00074B984204BF0B6903630123436103699C
:102B3C00DB0742BF036923F001030361704700BF49
:102B4C00002C014010B5044630B390F83D3003F032
:102B5C00FF021BB980F83C2000F096FE022320688F
:102B6C0084F83D30211DFFF7BBFF0123002084F8C2
:102B7C00463084F83E3084F83F3084F8403084F896
:102B8C00413084F8423084F8433084F8443084F87F
:102B9C00453084F83D3010BD0120FCE7704770478C
:102BAC00836810B504462BB10322014698470023D5
:102BBC00C4E9023310BD00000B4B98420BD0B0F1AE
:102BCC00804F0AD0A3F59433984208D003F5806364
:102BDC00984206D0FEE70020704701207047022083
:102BEC0070470320704700BF002C0140024670B5AF
:102BFC00044652F8100FFFF7DFFF0546104600F0B1
:102C0C00D5FD0023084A04F1600642F82530E36044
:102C1C0004F1B005B54204D0103D2846FDF796FCF2
:102C2C00F8E7204670BD00BFA8020020F8B50446A6
:102C3C000846FFF7C1FF236903B1FEE71B4D04F102
:102C4C000C0245F820200E2204F110063046C4E98F
:102C5C000C33C4E90E33C4E91033C4E916232161E3
:102C6C0084F82C30A36484F84C3084F84D30E46044
:102C7C0000F058FD04F1600504F1B007284610354A
:102C8C00FFF78EFFBD42F9D100234FF6FF72C4E966
:102C9C000033C4E90632C4E90833A36063618023BE
:102CAC003046A362BDE8F840FFF74CBFA8020020F5
:102CBC00034B186810B10430FFF77DBE704700BF9E
:102CCC00A8020020FFF7F4BF034B586810B1043082
:102CDC00FFF771BE704700BFA8020020034B986835
:102CEC0010B10430FFF767BE704700BFA802002088
:102CFC00034BD86810B10430FFF75DBE704700BFBE
:102D0C00A80200200022C0E90022C0E9022270477C
:102D1C00F8B504460E4600F1600500F1B0072846F0
:102D2C001035FFF7EFFFBD42F9D1002320463146A5
:102D3C002361FFF77BFF2046F8BD38B50023C0E9BF
:102D4C000033C0E902338B6804460D462BB10222D6
:102D5C009847EB68E360AB68A360204638BD30B59C
:102D6C00044687B002AD2846FFF7E7FF95E803005D
:102D7C00CDE9000194E8030085E80300DDE90001DA
:102D8C00049BA268A360059B0492E26884E803009C
:102D9C00E36028460592FDF7D9FB07B030BD38B586
:102DAC00836E04460D4660301BB1BDE83840FFF71A
:102DBC00D6BFFFF7D4FFAB683BB16FF001022369BC
:102DCC001A61DA6842F00102DA6038BD826810B527
:102DDC000AB901F029FCC368BDE81040184708B5D2
:102DEC0000B9FEE700F09CFC0068836E13B1603004
:102DFC00FFF7ECFF08BDFFF7F2BF10B500B9FEE717
:102E0C00037F013B072B10D8DFE803F004140F10ED
:102E1C000F0F0F12012400F083FC0068063400EB46
:102E2C00041083680BB1FFF7D1FF10BD0324F2E748
:102E3C000424F0E70224EEE7FFF7DFBFFFF7DDBF66
:102E4C0001F062BA01F068BA86B0042841D8DFE814
:102E5C0000F003101C2834001F4B20489A6942F0E4
:102E6C0004029A619B6903F004030193019B06B071
:102E7C007047194B1A489A6942F008029A619B698B
:102E8C0003F008030293029BF1E7134B15489A6970
:102E9C0042F010029A619B6903F010030393039BA9
:102EAC00E5E70D4B10489A6942F020029A619B6944
:102EBC0003F020030493049BD9E7074B0B489A6952
:102ECC0042F040029A619B6903F040030593059B15
:102EDC00CDE70020CBE700BF001002400008014006
:102EEC00000C01400010014000140140001801408A
:102EFC00F8B51349064600F0DDFBFFF75DFE114FF8
:102F0C00054657F8203073B9B020FFF799FF0C49EC
:102F1C000446304600F0CEFB01462046FFF7F8FE93
:102F2C0057F825301C601C6844B12046FFF75EFE44
:102F3C002046BDE8F840B021FFF784BFF8BD00BFC4
:102F4C00DC470008A8020020FFF782B8704708B5DC
:102F5C00FFF772F8FFF7E7F8FFF7F8FF08BD7047C7
:102F6C000F4B84B0DA6942F08052DA61DA6902F010
:102F7C0080520192019A9A6942F001029A619A690F
:102F8C0002F001020292029A5A6942F040025A611E
:102F9C005B6903F040030393039B04B0704700BFCD
:102FAC00001002400C4BD3F8FC20D2015EBFD3F8CA
:102FBC00FC2042F08072C3F8FC200022074B5A60C0
:102FCC001A6842F001021A6000BF00BF00BF5868C7
:102FDC00B0FA80F04009704700ED00E0001000E00E
:102FEC0008B5FFF7BDFFFFF7DDFFFFF713F8FFF79D
:102FFC00B6FF00F04FFFBDE808400148FFF798B856
:10300C00280000200023C0E90033C0E902337047D8
:10301C002DE9F043164600270A468BB0012A07F12A
:10302C0001046ED1CDE902130023FF2998BF02469B
:10303C001D461C464FF0010C88BF021D0CFA03FE06
:10304C00714505D11D46FF294FEA830488BF203CFA
:10305C000133102BF2D10F231268A3401340082226
:10306C00A240934250D10123C268AB4093430CBFA2
:10307C000123022304930323142402A90593FFF7CD
:10308C0067F80023FFB27C43DFF88480D6F8089001
:10309C00043406AD06934444C5E901330993B9F1F0
:1030AC00000F33D0022231462846C847D6E9029C8D
:1030BC0095E8030014267E43CDE9000108EB0603D6
:1030CC00043393E8030085E80300DDE9000183E89D
:1030DC000300A36828460893E368C4F80890C4F872
:1030EC000CC00993FDF732FA0022062118F90600EC
:1030FC00FEF7C6FF18F90600FEF7F2FF0BB0BDE8AD
:10310C00F0832746520889E70023B3E7CC46CFE784
:10311C00B80200200023012803F101020AD1142275
:10312C00DBB25343054A181D1044816829B11A4477
:10313C001369184713464008EDE77047B8020020A2
:10314C000120FFF7D9B80220FFF7D6B80420FFF70B
:10315C00D3B80820FFF7D0B81020FFF7CDB808B5CA
:10316C002020FFF7C9F84020FFF7C6F88020FFF7B2
:10317C00C3F84FF48070FFF7BFF8BDE808404FF478
:10318C000070FFF7B9B838B506244FF48065A8B2C3
:10319C00FFF7B2F8013C4FEA4505F8D138BD000005
:1031AC00344A08B51046062300F8043BFFF72AFF03
:1031BC00072302F118001375FFF724FF082302F10F
:1031CC002C0082F82830FFF71DFF092302F1400084
:1031DC0082F83C30FFF716FF0A23172102F1540046
:1031EC0082F85030FFF70EFF02F1680082F864108D
:1031FC00FFF708FF02F17C0082F87810FFF702FF5E
:10320C0002F1900082F88C10FFF7FCFE02F1A40092
:10321C0082F8A010FFF7F6FE82F8B410282102F114
:10322C00B800FFF7EFFE02F1CC0082F8C810FFF7F0
:10323C00E9FE02F1E00082F8DC10FFF7E3FE02F198
:10324C00F40082F8F010FFF7DDFE02F5847082F8CE
:10325C000411FFF7D7FE02F58E7082F81811FFF7F4
:10326C00D1FEBDE8084002F5987082F82C11FFF7EA
:10327C00C9BE00BFB802002038B5054CA4F5A07536
:10328C00143C201DFDF762F9AC42F9D138BD00BFEA
:10329C00F80300207B4B82B09A69013842F001029E
:1032AC009A619B6903F001030193019B23282CD89D
:1032BC00DFE810F024002D0034003B0040004700F4
:1032CC004C00530058005F0068006D0074007D00D6
:1032DC008200890092009B00A000A700B000B500FE
:1032EC00BC002B002B002B00C100C8002B002B00B6
:1032FC002B002B00CD00D200D900E000624A5368AD
:10330C0043F0E06343F00103536002B070475E4A40
:10331C00536823F0010343F0E063F5E75A4A53681E
:10332C0043F0E06343F00203EEE7574A536823F09F
:10333C000203F0E7544A536843F0E06343F004039C
:10334C00E2E7514A536823F00403E4E74E4A53681A
:10335C0043F0E06343F00803D6E74B4A536823F08D
:10336C000803D8E7484A536843F0E06343F030035E
:10337C00CAE7454A536823F0300343F0E06343F057
:10338C001003C1E7404A536823F03003C3E73E4AB9
:10339C00536843F0E06343F0C003B5E73A4A53681F
:1033AC0023F0C00343F0E06343F04003ACE7364A3C
:1033BC00536823F0C003AEE7334A536843F0E0632D
:1033CC0043F44073A0E7304A536823F4407343F04E
:1033DC00E06343F4007397E72B4A536823F440737C
:1033EC0043F0E06343F480738EE7274A536823F479
:1033FC00407390E7244A536843F0E06343F440631E
:10340C0082E7214A536823F4406343F0E06343F4BA
:10341C00006379E71C4A536823F440637BE71A4A3C
:10342C00536843F0E06343F480536DE7164A5368E6
:10343C0023F480536FE7144A536843F0E06343F47A
:10344C00004361E7104A536823F4004363E70E4AD4
:10345C00536823F0E06357E70B4A536823F0E063AB
:10346C0043F0807350E7084A536823F0E06343F05D
:10347C00007349E7044A536823F0E06343F0806328
:10348C0042E700BF001002400000014091FAA1F396
:10349C00B3FA83F370B50D0E0F2691FAA1F1B1FAC0
:1034AC0081F144599B0006FA03F3890024EA0304D2
:1034BC008A402243425170BD91FAA1F3B3FA83F3CF
:1034CC0070B50D0E042691FAA1F1B1FA81F14459AF
:1034DC009B0006FA03F3890024EA03048A40224382
:1034EC00425170BD431C04D00C3151F80C3C5A1C99
:1034FC0001D100207047834201F10C01F5D101206C
:10350C0070470000431C2DE9F34106460F4600D1DD
:10351C00FEE7594B00F00F02C0F3031001F007084F
:10352C0053F82240FFF790FCB8F1010F054615D176
:10353C0094FAA4F3B3FA83F30321200E2A589B00C8
:10354C0001FA03F322EA030294FAA4F3B3FA83F325
:10355C009B00994011432950012213E0C7F3062028
:10356C00B8F1030F0AD801A353F828F08B350008E3
:10357C0065350008EF350008FD350008FEE7FFF75C
:10358C0089FE08222146284608F1FF38FFF77EFF06
:10359C00B8F1010F06D817F0080218BF0422214613
:1035AC00FFF78AFF94FAA4F2230EB2FA82F2E958DA
:1035BC000F239200934094FAA4F2B2FA82F2C7F36A
:1035CC0001170B409200012F23FA02F312D0022FA5
:1035DC003BD0082B21D1042221462846FFF756FF69
:1035EC001BE07F2801D10922CCE7FFF753FEFAE755
:1035FC000022C7E7042B04D1082221462846FFF7F6
:10360C0045FF230A93FAA3F3B3FA83F20123E96883
:10361C00934021EA14210B43EB60184B9A6942F05A
:10362C0001029A619B6903F001030193019BA6F1CE
:10363C000D03012B14D8124A536823F0E06343F0B6
:10364C008063536002B0BDE8F081042B04D10822E2
:10365C0021462846FFF71AFFEB6823EA1423DBE721
:10366C000F2E02D0133E012EECD8054A536823F0DE
:10367C00E06343F00073E4E7C44600080010024026
:10368C0000000140431C06D17047834202D1896877
:10369C00FFF738BF0C310B685A1CF6D1FEE70B68EC
:1036AC005A1C01D100207047834201D148687047F1
:1036BC000C31F4E7431C01D0FFF7F1BF0020704739
:1036CC0003468B42084604D01BB100290CBF184698
:1036DC00002070470F4B1A6842F001021A605968BB
:1036EC000D4A0A405A601A6822F0847222F4803221
:1036FC001A601A6822F480221A605A6822F4FE02B8
:10370C005A604FF41F029A604FF00062034B9A60AC
:10371C00704700BF001002400000FFF800ED00E011
:10372C000438704703681D4A84B093420BD11C4B7C
:10373C009A6942F400629A619B6903F400630093F6
:10374C00009B04B07047B3F1804F0BD103F50433E9
:10375C00DA6942F00102DA61DB6903F001030193DB
:10376C00019BEEE70F4A93420AD10D4BDA6942F006
:10377C000202DA61DB6903F002030293029BE0E7C9
:10378C00094A9342DDD1064BDA6942F00402DA6150
:10379C00DB6903F004030393039BD2E7002C014085
:1037AC000010024000040040000800400368124A68
:1037BC00934206D102F56442936923F4006393614A
:1037CC007047B3F1804F05D10C4AD36923F0010344
:1037DC00D36170470A4A934205D102F50332D3698B
:1037EC0023F00203F4E7074A9342F2D102F50232C6
:1037FC00D36923F00403EBE7002C014000100240D6
:10380C000004004000080040431C10D00C4B9842B0
:10381C0010D007D8B0F1804F0ED0A3F5806398423A
:10382C000CD0FEE7074B9842FBD1192070476FF084
:10383C000D0070471E2070471C2070471D207047DC
:10384C0000080040002C0140431C10D00C4B984247
:10385C0010D007D8B0F1804F0ED0A3F580639842FA
:10386C000CD0FEE7074B9842FBD11B2070476FF042
:10387C000D0070471E2070471C2070471D2070479C
:10388C0000080040002C014038B50446FFF74AFF01
:10389C000068FFF7B9FFD4E91212FEF7F1FB2068BC
:1038AC00FFF7B2FFFEF71CFC22681046FFF7CCFFB7
:1038BC0005461046FFF7A8FF85420BD0D4E912123B
:1038CC002846FEF7DDFB2068FFF7BEFFBDE8384059
:1038DC00FEF706BC38BD000003460A4910B508685F
:1038EC000344EFF30882934205D90C224FF0FF30CA
:1038FC00054B1A6010BD054A054C121B9342F4D2BD
:10390C000B60F7E734000020C005002000500020B9
:10391C0000040000FEE700001622024B4FF0FF30BF
:10392C001A607047C0050020012070472DE9F04156
:10393C001C4601231646434A0D46C0E91B230021B1
:10394C005C220746DDF8188000F09CFDF3B2222BB8
:10395C0028D83D4A06F4E06652F823301E43EBB2F9
:10396C00222BFE6532D8384A05F4E06552F8233034
:10397C001D43E3B2222B3D663CD8334A04F4E06489
:10398C0052F823301C435FFA88F2222A7C6645D811
:10399C002D4908F4E06351F8222013433846BB66E6
:1039AC00BDE8F08106F0C002C02A0CD1C92B0AD8A0
:1039BC00264B06F03F0253F82220234B06F4E06618
:1039CC0053F82230CAE74FF0FF36C8E705F0C002C3
:1039DC00C02A0CD1C92B0AD81C4B05F03F0253F856
:1039EC002220194B05F4E06553F82230C0E74FF064
:1039FC00FF35BEE704F0C002C02A0CD1C92B0AD88F
:103A0C00124B04F03F0253F822200F4B04F4E064F5
:103A1C0053F82230B6E74FF0FF34B4E708F0C00398
:103A2C00C02B0CD1C92A0AD8084B08F03F0253F816
:103A3C002210054A08F4E06352F82120ADE74FF05C
:103A4C00FF33ABE700093D00084A0008E0490008D5
:103A5C0000220123054910B410BC80F85120C16626
:103A6C0080F8703080F8712000F078B800093D00C3
:103A7C0017B4CDE90012C16E009A044691426B4610
:103A8C0005D1B0F87010BDF8042091420ED000980A
:103A9C009B88E0662046A4F8703094F8703094F857
:103AAC007120E16E03B010BC00F058B803B010BC2C
:103ABC007047704707B5002A8DF807100DF1070104
:103ACC004FF001030CBF0A46002200F081F99DF86B
:103ADC00070003B05DF804FB002B93B20CBF0A4641
:103AEC00002200F075B90000232307B5C62200930D
:103AFC00C721C5230248FFF719FF03B05DF804FB8B
:103B0C00F803002091FAA1F3B3FA83F370B50D0E0C
:103B1C000F2691FAA1F1B1FA81F144599B0006FAF2
:103B2C0003F3890024EA03048A402243425170BD06
:103B3C000346074A10684BB1064A934201D1FEF77F
:103B4C0055BE054A934201D1FEF740BE704700BFF7
:103B5C003000002000300140003800402DE9F74FC4
:103B6C000E4615461F460446002800F0ED808F498E
:103B7C00006EFFF79FFD8E498146E06DFFF79AFDC1
:103B8C008C498346606EFFF795FD8B498046A06E8D
:103B9C00FFF790FD8246B9F1000F00F0D580BBF124
:103BAC00000F00F0D180B8F1000F00F0CD80594625
:103BBC004846FFF785FD514681464046FFF780FD9C
:103BCC00014680464846FFF77BFDA065B9F1000F22
:103BDC0000F0BA80B8F1000F00F0B680002800F0B9
:103BEC00B380A26E4FF48273511C0CBF4FF4007261
:103BFC004FF480222060A2616360FFF799FFB6EB5F
:103C0C00500F80F0A480B6EB900F80F0A280B6EB42
:103C1C00D00F80F0A080B6EB101F80F09E80B6EB2A
:103C2C00501F80F09C80B6EB901F80F09A80B6EB12
:103C3C00D01F2CBF30233823E361002D00F093807C
:103C4C00022D00F09280013D18BF012501236D006B
:103C5C00C4E904530723E362B7FA87F300265B0930
:103C6C00DB01C4E908365149206EA660A662E66005
:103C7C00FFF708FD4E49E06DFFF704FD4D49606EFE
:103C8C00FFF700FD2369B342636E18BF0125C3F330
:103C9C00031208BF0225042A8CBF3046474903F0A3
:103CAC000F0398BF51F82200454A022D52F82310F9
:103CBC0091FAA1F24FEA1163B2FA82F2C6584FF0B0
:103CCC000F034FEA820203FA02F391FAA1F2B2FA5D
:103CDC0082F203EA06034FEA820223FA02F34FEA66
:103CEC00112544D0042B02D10822FFF70BFFC26828
:103CFC00012322EA050295FAA5F5B5FA85F5AB4044
:103D0C001343C3602C49A06EFFF7BCFC23682D4AFB
:103D1C00934235D12C4B9A6942F480529A619A693C
:103D2C0002F480520092009ADA6842F48052DA600F
:103D3C00DA6822F48052DA602046FEF7E2FD22684F
:103D4C00136843F04003136003B0BDE8F08F002309
:103D5C0072E7082370E710236EE718236CE7202323
:103D6C006AE7282368E72B4672E7002370E7042BE9
:103D7C0002D10822FFF7C6FEC36823EA0503C0E799
:103D8C00124A9342D8D1104BDA6942F48042DA617C
:103D9C00DA6902F480420192019A1A6942F4804273
:103DAC001A611A6922F480421A61C5E7AC4700080F
:103DBC007C4700084C4700081C47000814000020F2
:103DCC00C44600080030014000100240003800409A
:103DDC002DE9F0410D4616461C4633B30768FEF735
:103DEC0037F98046BB689907FCD5D5B115F8013B6E
:103DFC003B73BB68DA07FCD53B7B0EB106F8013B85
:103E0C00FEF726F9A0EB0800B0F57A7F04F1FF3439
:103E1C0009D2002CE6D12046BB681B06FCD4BDE8B9
:103E2C00F081FF23E4E70120F6E70220F7E700002A
:103E3C001148854672B6BFF34F8FBFF36F8F71B6C3
:103E4C00002103E00D4B5B58435004310C480D4BE3
:103E5C0042189A42F6D30C4A02E0002342F8043B83
:103E6C000A4B9A42F9D3FFF735FC62B661B600F003
:103E7C0021FB00F092F9704700500020E44A000842
:103E8C00000000208800002088000020C8050020C9
:103E9C00FEE700BE10B594B0142200210CA800F06F
:103EAC00F1FA142200210DEB020000F0EBFA1022C3
:103EBC00002101A800F0E6FA02244FF4803301221D
:103ECC00CDE91143CDE90A234FF4E0130AA80E9271
:103EDC001393FEF71DFA00B1FEE70F23CDE905346D
:103EEC004FF480630790CDE90830214605A8FEF712
:103EFC00D1FB00B1FEE7122301934FF40043CDE94F
:103F0C00033001A8FEF782FC00B1FEE714B010BD2F
:103F1C002DE9F84305460C46002700F1030800F193
:103F2C00060918F8011F0A22204600F063F82E211A
:103F3C000646204600F033F8C84506443744F0D115
:103F4C000A222046E97900F055F83844BDE8F88398
:103F5C00024A026000224260704700BF9C4A00087F
:103F6C0030B5044D83719DF80C30056001714271C0
:103F7C00C37130BD9C4A00080B684360704770B534
:103F8C0005460C46084649B1FCF7BAF82B680246C0
:103F9C0021462846BDE870405B68184770BD036831
:103FAC001B6818470023012A98BF0A2230B58BB032
:103FBC000C468DF8243009A92546B4FBF2F404FB19
:103FCC001253DBB2092B94BF30333733DBB2AA4226
:103FDC0001F8013DF0D9FFF7D2FF0BB030BD10B4A2
:103FEC0022B9026810BC1268C9B2104710BCD2B218
:103FFC00FFF7D8BFFFF7F3BF10B5044600F070F918
:10400C00E060236820465B699847002808DA00F0D6
:10401C0067F9E368C01AA3689842F2D34FF0FF30F7
:10402C0010BDF8B507460D460C468E18B44201D1AA
:10403C00601BF8BD3846FFF7DFFF431CF8D004F8CF
:10404C00010BF3E72DE9F0410746884616461D465D
:10405C0073B100243846FFF7CFFF431C05D0404511
:10406C0003D030550134A542F4D12046BDE8F0818F
:10407C001C46FAE72DE9F041C3B2222B0D469046BF
:10408C0086B04ED8394A00F4E06452F823301C4311
:10409C00C4F30310FEF7D8FE074600283ED0B8F153
:1040AC00020F52D0B8F1030F51D0314E314BB8F151
:1040BC00000F08BF1E46304B9A6942F001029A610C
:1040CC009B6903F001030193019BA4F10D03012BE8
:1040DC003FD82A4A536823F0E06343F0806353606F
:1040EC0000230122CDE90233CDE9043304F00F049F
:1040FC00AB6802FA04F4A4B23BB10222294602A82E
:10410C009847EB680593AB680493384633462146D1
:10411C0002AAFEF77DFF02A8FCF718FA06B0BDE86C
:10412C00F08100F0C002C02A0CD1C92B0AD8144B64
:10413C0000F03F0253F822200C4B00F4E06453F8DB
:10414C002230A4E74FF0FF34A2E70E4EB3E7094E3E
:10415C00B1E70F2C03D0A4F11303012BC0D8074AED
:10416C00536823F0E06343F00073B8E7084A000893
:10417C00000011100000211000100240000001404E
:10418C00E049000800003110704708B50320FDF726
:10419C0065FFBDE8084000F0B4B808B5AFF3008087
:1041AC00FCF7DEF9FCF71EFB00F0AAF8FAE70000BA
:1041BC00C3B2222B2DE9F0410D462AD8274A00F430
:1041CC00E06452F823301C43621C44D0244EC4F3E8
:1041DC00031756F8273004F00F0823FA08F3DB070F
:1041EC0010D520461F49FFF77DF910B12046FEF788
:1041FC007FFE012256F8273002FA08F223EA020366
:10420C0046F82730052D15D8DFE805F015211B1DC4
:10421C001F2300F0C002C02A1DD1C92B1BD8124B82
:10422C0000F03F0253F822200C4B00F4E06453F8EA
:10423C002230C8E7FEE700212046BDE8F041FFF739
:10424C0061B91021F8E72021F6E70321F4E70121F9
:10425C00F2E70921F0E7BDE8F08100BF084A000849
:10426C006C040020DC470008E0490008C3B2222B94
:10427C001BD8174A00F4E06052F823301843431C53
:10428C0025D0C0F30313042B98BF124A00F00F0083
:10429C0098BF52F82320104B88BF002253F82030CF
:1042AC00C3F30F2391B11361704700F0C002C02A11
:1042BC000DD1C92B0BD8094B00F03F0253F822202B
:1042CC00034B00F4E06053F82230D7E7536170479A
:1042DC00084A000814000020C4460008E049000801
:1042EC00FEF732BE38B5044648B1FEF72DFE054642
:1042FC00FFF74AFFFEF728FE431BA342F8D338BD55
:10430C007047FEF76DBE0000024B0146186800F0C6
:10431C002DB800BF38000020024B0146186800F091
:10432C00EFB800BF3800002070B50F4E0C46316856
:10433C00054611B900F0AEF830602146284600F071
:10434C00A9F8431C03D14FF0FF34204670BDC41CA8
:10435C0024F00304A042F8D0211A284600F09AF861
:10436C000130F2D1EFE700BF800400202DE9F843C3
:10437C00CD1C25F0030508350C2D38BF0C25002D60
:10438C00064601DBA94204D90C2333600020BDE8AA
:10439C00F883DFF8D48000F069F8D8F800301C46B8
:1043AC0044BB29463046FFF7BFFF431C044658D197
:1043BC00D8F800402746002F43D1002C4BD023685F
:1043CC003946304604EB030900F064F8814542D1CC
:1043DC00216830466D1A2946FFF7A6FF01303AD006
:1043EC0023682B442360D8F800305A6862BBC8F8A5
:1043FC0000700FE02268521B20D40B2A17D96119C8
:10440C00A342256018BF5960636808BFC8F8001044
:10441C0062514B60304600F02FF804F10B00231D65
:10442C0020F00700C21A1CBF1B1AA350AFE762682A
:10443C00A3420CBFC8F800205A60EBE7234664681F
:10444C00AEE73C467F68B6E71A465B68A342FBD1F1
:10445C0000235360DEE70C233046336000F00CF889
:10446C0094E70560D6E700BF84040020014800F003
:10447C0045B800BFC4050020014800F040B800BF9B
:10448C00C405002003460244934200D1704703F850
:10449C00011BF9E738B50023054D044608462B608F
:1044AC00FFF71AFA431C02D12B6803B1236038BD05
:1044BC00C005002070B500260C4D0D4B5B1B9C10ED
:1044CC00A64209D1002600F0B3F80A4D0A4B5B1B3B
:1044DC009C10A64205D170BD55F8043B9847013697
:1044EC00EEE755F8043B98470136F2E7A84A000876
:1044FC00A84A0008A84A0008DC4A00087047704720
:10450C0038B50546002940D051F8043C0C1F002B4F
:10451C00B8BFE418FFF7AAFF1C4A136833B96360ED
:10452C0014602846BDE83840FFF7A6BFA34208D95F
:10453C00206821188B4201BF19685B68091821603B
:10454C00EDE71A465B680BB1A342FAD91168501813
:10455C00A0420BD120680144501883421160E0D175
:10456C0018685B68084410605360DAE702D90C23C2
:10457C002B60D6E7206821188B4201BF19685B6855
:10458C000918216063605460CBE738BD84040020B7
:10459C00062008B500F02CF80120FFF7BBF91F2905
:1045AC0038B505460C4604D9162303604FF0FF308E
:1045BC0038BDC26B12B152F821304BB9284600F00D
:1045CC0031F8224601462846BDE8384000F018B8BC
:1045DC00012B0AD0591C03D1162303600120E7E7F5
:1045EC000021204642F8241098470020E0E7000004
:1045FC00024B01461868FFF7D2BF00BF38000020FD
:10460C0038B50023064D0446084611462B60FFF7CB
:10461C0083F9431C02D12B6803B1236038BD00BF62
:10462C00C0050020FFF780B908B5FFF7B1FF000007
:10463C00F8B500BFF8BC08BC9E467047F8B500BF83
:08464C00F8BC08BC9E46704753
:104654000000000000000000BD100008B3110008B5
:1046640079100008D5100008B9100008CD11000811
:10467400251200082F40000851400008EF100008E0
:1046840041120008D7100008951100081D110008F8
:10469400A711000881120008FB11000899100008F6
:1046A400A1100008B1100008B510000801020203AF
:1046B4000405060708090A0B0C0D0E0F1010000064
:1046C40001010000020200000404000008080000C8
:1046D40010100000202000004040000080800000F6
:1046E4000100010402000204040004040800080498
:1046F40010001004200020044000400480008004C6
:10470400000000000102030400000000000000009B
:1047140001020304060708090400000000300140F8
:10472400120200000F0000000030014012010000DE
:104734001C0000000038004012000000FFFFFFFFD3
:1047440000000000000000000500000000300140EF
:1047540012020000130000000030014012010000AA
:104764001D0000000038004012000000FFFFFFFFA2
:1047740000000000000000000600000000300140BE
:104784001202000014000000003001401201000079
:104794001E0000000038004012000000FFFFFFFF71
:1047A400000000000000000007000000003001408D
:1047B4001202000015000000003001401201000048
:1047C4001F0000000038004012000000FFFFFFFF40
:1047D4000000000000000000000000000000004095
:1047E4001280000000010000000000401290000050
:1047F400010000000000004012120100010100004D
:1048040000000040121001000200000000000040FF
:104814001292010002010000000000401291010008
:104824000300000000000040121202000301000017
:1048340000000040121102000600000000040040C5
:104844001295000007000000002C0140128D10009A
:1048540007010000000400401215010008000000D8
:10486400002C0140128E000008010000002C0140C1
:10487400128D000009000000002C0140120E0100FE
:1048840009010000002C0140120D01000A00000083
:10489400002C0140128E01000A010000002C01408E
:1048A400128D01000B000000002C0140120E0200CA
:1048B4000B010000002C0140120D02000F0000004B
:1048C40000000040129100000F01000000000040B1
:1048D400128F000010000000002C0140120D110086
:1048E40010010000000400401295010010020000B5
:1048F400000400401294010011000000002C01404B
:10490400128D110011010000000400401215020074
:104914001102000000040040121402001300000001
:1049240000000040121101001301000000000040CB
:10493400120F010014000000000400401294000053
:1049440015000000000400401214010016000000CD
:104954000008004012970000170000000008004003
:10496400121701001800000000080040129701000F
:104974001900000000080040121702001A0000008D
:1049840000000040129001001A01000000000040E5
:10499400128F01001B0000000000004012100200F2
:1049A4001B01000000000040120F02001D00000067
:1049B400002C0140128E10001E000000002C01404B
:1049C400120E11001F000000002C0140128E110075
:1049D400FFFFFFFF000000000000000014000000C3
:1049E4001500000016000000170000001800000069
:1049F400190000001A0000001B0000001C00000049
:104A04001D0000001900000018000000170000003D
:104A14001600000015000000140000001300000040
:104A24000F0000000C0000000B0000000A00000052
:104A340009000000080000001F0000001E00000024
:104A44001D0000001C0000002D0000002E000000CE
:104A54002F00000000000000010000000200000020
:104A64000300000004000000050000000600000030
:104A74000700000010000000110000001A000000F0
:104A84001B000000120000000D0000000E000000DA
:0C4A940000000000000000001D3F0008B2
:084AA0006CB6FF7F010000006D
:104AA80097410008B9040008F50A0008490B0008F6
:104AB800B50B0008391000085D1000087D100008CB
:104AC800D1120008ED1A0008B91F0008AD3100081E
:044AD800F53A0008A3
:084ADC00950400088532000872
:104AE40032E40000DEADBEEFFEE100C0C401000010
:104AF4001000000000080140000C014000100140BB
:104B04000014014000180140003002400000000081
:104B140000127A00C80500203C00002000000000BC
:104B240088040020F0040020580500200000000044
:104B34000000000000000000000000000000000071
:104B44000000000000000000000000000000000061
:104B54000000000000000000000000000000000051
:084B6400000000000000000049
:0400000508003E3D74
:00000001FF
